{
  "contractName": "KhelCoinSale",
  "abi": [
    {
      "inputs": [
        {
          "internalType": "uint256",
          "name": "rate",
          "type": "uint256"
        },
        {
          "internalType": "address payable",
          "name": "wallet",
          "type": "address"
        },
        {
          "internalType": "contract IERC20",
          "name": "token",
          "type": "address"
        }
      ],
      "stateMutability": "nonpayable",
      "type": "constructor"
    },
    {
      "anonymous": false,
      "inputs": [
        {
          "indexed": true,
          "internalType": "address",
          "name": "previousOwner",
          "type": "address"
        },
        {
          "indexed": true,
          "internalType": "address",
          "name": "newOwner",
          "type": "address"
        }
      ],
      "name": "OwnershipTransferred",
      "type": "event"
    },
    {
      "anonymous": false,
      "inputs": [
        {
          "indexed": true,
          "internalType": "address",
          "name": "changedBy",
          "type": "address"
        },
        {
          "indexed": false,
          "internalType": "uint256",
          "name": "newRate",
          "type": "uint256"
        }
      ],
      "name": "RateChanged",
      "type": "event"
    },
    {
      "anonymous": false,
      "inputs": [
        {
          "indexed": true,
          "internalType": "address",
          "name": "purchaser",
          "type": "address"
        },
        {
          "indexed": true,
          "internalType": "address",
          "name": "beneficiary",
          "type": "address"
        },
        {
          "indexed": false,
          "internalType": "uint256",
          "name": "value",
          "type": "uint256"
        },
        {
          "indexed": false,
          "internalType": "uint256",
          "name": "amount",
          "type": "uint256"
        }
      ],
      "name": "TokensPurchased",
      "type": "event"
    },
    {
      "inputs": [
        {
          "internalType": "address",
          "name": "beneficiary",
          "type": "address"
        }
      ],
      "name": "buyTokens",
      "outputs": [],
      "stateMutability": "payable",
      "type": "function",
      "payable": true
    },
    {
      "inputs": [],
      "name": "owner",
      "outputs": [
        {
          "internalType": "address",
          "name": "",
          "type": "address"
        }
      ],
      "stateMutability": "view",
      "type": "function",
      "constant": true
    },
    {
      "inputs": [],
      "name": "rate",
      "outputs": [
        {
          "internalType": "uint256",
          "name": "",
          "type": "uint256"
        }
      ],
      "stateMutability": "view",
      "type": "function",
      "constant": true
    },
    {
      "inputs": [],
      "name": "renounceOwnership",
      "outputs": [],
      "stateMutability": "nonpayable",
      "type": "function"
    },
    {
      "inputs": [],
      "name": "token",
      "outputs": [
        {
          "internalType": "contract IERC20",
          "name": "",
          "type": "address"
        }
      ],
      "stateMutability": "view",
      "type": "function",
      "constant": true
    },
    {
      "inputs": [
        {
          "internalType": "address",
          "name": "newOwner",
          "type": "address"
        }
      ],
      "name": "transferOwnership",
      "outputs": [],
      "stateMutability": "nonpayable",
      "type": "function"
    },
    {
      "inputs": [],
      "name": "wallet",
      "outputs": [
        {
          "internalType": "address payable",
          "name": "",
          "type": "address"
        }
      ],
      "stateMutability": "view",
      "type": "function",
      "constant": true
    },
    {
      "inputs": [],
      "name": "weiRaised",
      "outputs": [
        {
          "internalType": "uint256",
          "name": "",
          "type": "uint256"
        }
      ],
      "stateMutability": "view",
      "type": "function",
      "constant": true
    },
    {
      "stateMutability": "payable",
      "type": "receive",
      "payable": true
    },
    {
      "inputs": [
        {
          "internalType": "uint256",
          "name": "newRate",
          "type": "uint256"
        }
      ],
      "name": "updateRate",
      "outputs": [],
      "stateMutability": "nonpayable",
      "type": "function"
    }
  ],
  "bytecode": "0x608060405234801561001057600080fd5b5060405161098938038061098983398101604081905261002f916101fc565b6001600055828282826100895760405162461bcd60e51b815260206004820152601460248201527f43726f776473616c653a2072617465206973203000000000000000000000000060448201526064015b60405180910390fd5b6001600160a01b0382166100ed5760405162461bcd60e51b815260206004820152602560248201527f43726f776473616c653a2077616c6c657420697320746865207a65726f206164604482015264647265737360d81b6064820152608401610080565b6001600160a01b03811661014f5760405162461bcd60e51b8152602060048201526024808201527f43726f776473616c653a20746f6b656e20697320746865207a65726f206164646044820152637265737360e01b6064820152608401610080565b600392909255600280546001600160a01b039283166001600160a01b0319918216179091556001805492909316911617905561018a33610192565b50505061023f565b600580546001600160a01b038381166001600160a01b0319831681179093556040519116919082907f8be0079c531659141344cd1fd0a4f28419497f9722a3daafe3b4186f6b6457e090600090a35050565b6001600160a01b03811681146101f957600080fd5b50565b60008060006060848603121561021157600080fd5b835192506020840151610223816101e4565b6040850151909250610234816101e4565b809150509250925092565b61073b8061024e6000396000f3fe60806040526004361061008a5760003560e01c8063715018a611610059578063715018a61461012f5780638da5cb5b14610144578063ec8ac4d814610162578063f2fde38b14610170578063fc0c546a1461019057600080fd5b80632c4e722e146100a45780634042b66f146100c8578063521eb273146100dd57806369ea17711461010f57600080fd5b3661009f5761009d336101ae565b6101ae565b005b600080fd5b3480156100b057600080fd5b506003545b6040519081526020015b60405180910390f35b3480156100d457600080fd5b506004546100b5565b3480156100e957600080fd5b506002546001600160a01b03165b6040516001600160a01b0390911681526020016100bf565b34801561011b57600080fd5b5061009d61012a36600461061f565b610295565b34801561013b57600080fd5b5061009d610344565b34801561015057600080fd5b506005546001600160a01b03166100f7565b61009d610098366004610638565b34801561017c57600080fd5b5061009d61018b366004610638565b61037a565b34801561019c57600080fd5b506001546001600160a01b03166100f7565b6002600054036102055760405162461bcd60e51b815260206004820152601f60248201527f5265656e7472616e637947756172643a207265656e7472616e742063616c6c0060448201526064015b60405180910390fd5b6002600055346102158282610415565b6000610220826104d2565b60045490915061023090836104ef565b60045561023d8382610502565b60408051838152602081018390526001600160a01b0385169133917f6faf93231a456e552dbc9961f58d9713ee4f2e69d15f1975b050ef0911053a7b910160405180910390a361028b61050c565b5050600160005550565b6005546001600160a01b031633146102bf5760405162461bcd60e51b81526004016101fc90610661565b600081116103075760405162461bcd60e51b815260206004820152601560248201527472617465206d757374206265206e6f6e2d7a65726f60581b60448201526064016101fc565b600381905560405181815233907f14eccc240e5ba9a72e0ca955584fe1b0dca7104fce4dcb1296edbba8eea2da049060200160405180910390a250565b6005546001600160a01b0316331461036e5760405162461bcd60e51b81526004016101fc90610661565b6103786000610545565b565b6005546001600160a01b031633146103a45760405162461bcd60e51b81526004016101fc90610661565b6001600160a01b0381166104095760405162461bcd60e51b815260206004820152602660248201527f4f776e61626c653a206e6577206f776e657220697320746865207a65726f206160448201526564647265737360d01b60648201526084016101fc565b61041281610545565b50565b6001600160a01b03821661047e5760405162461bcd60e51b815260206004820152602a60248201527f43726f776473616c653a2062656e656669636961727920697320746865207a65604482015269726f206164647265737360b01b60648201526084016101fc565b806000036104ce5760405162461bcd60e51b815260206004820152601960248201527f43726f776473616c653a20776569416d6f756e7420697320300000000000000060448201526064016101fc565b5050565b60006104e96003548361059790919063ffffffff16565b92915050565b60006104fb82846106ac565b9392505050565b6104ce82826105a3565b6002546040516001600160a01b03909116903480156108fc02916000818181858888f19350505050158015610412573d6000803e3d6000fd5b600580546001600160a01b038381166001600160a01b0319831681179093556040519116919082907f8be0079c531659141344cd1fd0a4f28419497f9722a3daafe3b4186f6b6457e090600090a35050565b60006104fb82846106c4565b60015460405163a9059cbb60e01b81526001600160a01b038481166004830152602482018490529091169063a9059cbb906044016020604051808303816000875af11580156105f6573d6000803e3d6000fd5b505050506040513d601f19601f8201168201806040525081019061061a91906106e3565b505050565b60006020828403121561063157600080fd5b5035919050565b60006020828403121561064a57600080fd5b81356001600160a01b03811681146104fb57600080fd5b6020808252818101527f4f776e61626c653a2063616c6c6572206973206e6f7420746865206f776e6572604082015260600190565b634e487b7160e01b600052601160045260246000fd5b600082198211156106bf576106bf610696565b500190565b60008160001904831182151516156106de576106de610696565b500290565b6000602082840312156106f557600080fd5b815180151581146104fb57600080fdfea264697066735822122097ca5665879adaab6a636fd697b469597c49e38829e566ee8206e3bd9b6a90f564736f6c634300080d0033",
  "immutableReferences": {},
  "source": "// SPDX-License-Identifier: UNLICENSED\r\npragma solidity ^0.8.4;\r\n\r\nimport \"./Crowdsale.sol\";\r\n\r\ncontract KhelCoinSale is Crowdsale, Ownable {\r\n\r\n    event RateChanged(address indexed changedBy, uint256 newRate);\r\n\r\n    // rate in TKNbits\r\n    constructor (uint256 rate, address payable wallet, IERC20 token)     \r\n        Crowdsale(rate, wallet, token){}\r\n\r\n    function updateRate(uint256 newRate) public onlyOwner {\r\n        require(newRate > 0, \"rate must be non-zero\");\r\n        _rate = newRate;\r\n\r\n        emit RateChanged(_msgSender(), newRate);\r\n    }    \r\n}",
  "sourcePath": "E:\\Users\\ashte\\code\\tcoin01\\contracts\\KhelCoinSale.sol",
  "compiler": {
    "name": "solc",
    "version": "0.8.13+commit.abaa5c0e.Emscripten.clang"
  },
  "schemaVersion": "3.4.6",
  "updatedAt": "2022-05-09T20:09:39.772Z",
  "networkType": "ethereum",
  "devdoc": {
    "kind": "dev",
    "methods": {
      "buyTokens(address)": {
        "details": "low level token purchase ***DO NOT OVERRIDE*** This function has a non-reentrancy guard, so it shouldn't be called by another `nonReentrant` function.",
        "params": {
          "beneficiary": "Recipient of the token purchase"
        }
      },
      "owner()": {
        "details": "Returns the address of the current owner."
      },
      "rate()": {
        "returns": {
          "_0": "the number of token units a buyer gets per wei."
        }
      },
      "renounceOwnership()": {
        "details": "Leaves the contract without owner. It will not be possible to call `onlyOwner` functions anymore. Can only be called by the current owner. NOTE: Renouncing ownership will leave the contract without an owner, thereby removing any functionality that is only available to the owner."
      },
      "token()": {
        "returns": {
          "_0": "the token being sold."
        }
      },
      "transferOwnership(address)": {
        "details": "Transfers ownership of the contract to a new account (`newOwner`). Can only be called by the current owner."
      },
      "wallet()": {
        "returns": {
          "_0": "the address where funds are collected."
        }
      },
      "weiRaised()": {
        "returns": {
          "_0": "the amount of wei raised."
        }
      }
    },
    "version": 1
  },
  "userdoc": {
    "events": {
      "TokensPurchased(address,address,uint256,uint256)": {
        "notice": "Event for token purchase logging"
      }
    },
    "kind": "user",
    "methods": {},
    "version": 1
  }
}