{
  "contractName": "KhelCoinSale",
  "abi": [
    {
      "inputs": [
        {
          "internalType": "uint256",
          "name": "rate",
          "type": "uint256"
        },
        {
          "internalType": "address payable",
          "name": "wallet",
          "type": "address"
        },
        {
          "internalType": "contract IERC20",
          "name": "token",
          "type": "address"
        }
      ],
      "stateMutability": "nonpayable",
      "type": "constructor"
    },
    {
      "anonymous": false,
      "inputs": [
        {
          "indexed": true,
          "internalType": "address",
          "name": "previousOwner",
          "type": "address"
        },
        {
          "indexed": true,
          "internalType": "address",
          "name": "newOwner",
          "type": "address"
        }
      ],
      "name": "OwnershipTransferred",
      "type": "event"
    },
    {
      "anonymous": false,
      "inputs": [
        {
          "indexed": false,
          "internalType": "address",
          "name": "account",
          "type": "address"
        }
      ],
      "name": "Paused",
      "type": "event"
    },
    {
      "anonymous": false,
      "inputs": [
        {
          "indexed": true,
          "internalType": "address",
          "name": "changedBy",
          "type": "address"
        },
        {
          "indexed": false,
          "internalType": "uint256",
          "name": "newRate",
          "type": "uint256"
        }
      ],
      "name": "RateChanged",
      "type": "event"
    },
    {
      "anonymous": false,
      "inputs": [
        {
          "indexed": true,
          "internalType": "address",
          "name": "purchaser",
          "type": "address"
        },
        {
          "indexed": true,
          "internalType": "address",
          "name": "beneficiary",
          "type": "address"
        },
        {
          "indexed": false,
          "internalType": "uint256",
          "name": "value",
          "type": "uint256"
        },
        {
          "indexed": false,
          "internalType": "uint256",
          "name": "amount",
          "type": "uint256"
        }
      ],
      "name": "TokensPurchased",
      "type": "event"
    },
    {
      "anonymous": false,
      "inputs": [
        {
          "indexed": false,
          "internalType": "address",
          "name": "account",
          "type": "address"
        }
      ],
      "name": "Unpaused",
      "type": "event"
    },
    {
      "inputs": [],
      "name": "owner",
      "outputs": [
        {
          "internalType": "address",
          "name": "",
          "type": "address"
        }
      ],
      "stateMutability": "view",
      "type": "function",
      "constant": true
    },
    {
      "inputs": [],
      "name": "paused",
      "outputs": [
        {
          "internalType": "bool",
          "name": "",
          "type": "bool"
        }
      ],
      "stateMutability": "view",
      "type": "function",
      "constant": true
    },
    {
      "inputs": [],
      "name": "rate",
      "outputs": [
        {
          "internalType": "uint256",
          "name": "",
          "type": "uint256"
        }
      ],
      "stateMutability": "view",
      "type": "function",
      "constant": true
    },
    {
      "inputs": [],
      "name": "renounceOwnership",
      "outputs": [],
      "stateMutability": "nonpayable",
      "type": "function"
    },
    {
      "inputs": [],
      "name": "token",
      "outputs": [
        {
          "internalType": "contract IERC20",
          "name": "",
          "type": "address"
        }
      ],
      "stateMutability": "view",
      "type": "function",
      "constant": true
    },
    {
      "inputs": [
        {
          "internalType": "address",
          "name": "newOwner",
          "type": "address"
        }
      ],
      "name": "transferOwnership",
      "outputs": [],
      "stateMutability": "nonpayable",
      "type": "function"
    },
    {
      "inputs": [],
      "name": "wallet",
      "outputs": [
        {
          "internalType": "address payable",
          "name": "",
          "type": "address"
        }
      ],
      "stateMutability": "view",
      "type": "function",
      "constant": true
    },
    {
      "inputs": [],
      "name": "weiRaised",
      "outputs": [
        {
          "internalType": "uint256",
          "name": "",
          "type": "uint256"
        }
      ],
      "stateMutability": "view",
      "type": "function",
      "constant": true
    },
    {
      "stateMutability": "payable",
      "type": "receive",
      "payable": true
    },
    {
      "inputs": [],
      "name": "pause",
      "outputs": [],
      "stateMutability": "nonpayable",
      "type": "function"
    },
    {
      "inputs": [],
      "name": "unpause",
      "outputs": [],
      "stateMutability": "nonpayable",
      "type": "function"
    },
    {
      "inputs": [
        {
          "internalType": "uint256",
          "name": "newRate",
          "type": "uint256"
        }
      ],
      "name": "updateRate",
      "outputs": [],
      "stateMutability": "nonpayable",
      "type": "function"
    },
    {
      "inputs": [
        {
          "internalType": "address",
          "name": "beneficiary",
          "type": "address"
        }
      ],
      "name": "buyTokens",
      "outputs": [],
      "stateMutability": "payable",
      "type": "function",
      "payable": true
    }
  ],
  "bytecode": "0x60806040523480156200001157600080fd5b50604051620010b9380380620010b9833981016040819052620000349162000492565b6001600055828282826200008f5760405162461bcd60e51b815260206004820152601460248201527f43726f776473616c653a2072617465206973203000000000000000000000000060448201526064015b60405180910390fd5b6001600160a01b038216620000f55760405162461bcd60e51b815260206004820152602560248201527f43726f776473616c653a2077616c6c657420697320746865207a65726f206164604482015264647265737360d81b606482015260840162000086565b6001600160a01b038116620001595760405162461bcd60e51b8152602060048201526024808201527f43726f776473616c653a20746f6b656e20697320746865207a65726f206164646044820152637265737360e01b606482015260840162000086565b600392909255600280546001600160a01b039283166001600160a01b03199182161790915560018054929093169116179055620001963362000232565b6005805460ff60a01b191690556001600160a01b03811663095ea7b3336040516001600160e01b031960e084901b1681526001600160a01b03909116600482015260001960248201526044016020604051808303816000875af115801562000202573d6000803e3d6000fd5b505050506040513d601f19601f82011682018060405250810190620002289190620004da565b505050506200051f565b6000620002476001546001600160a01b031690565b6001600160a01b031663dd62ed3e30620002696005546001600160a01b031690565b6040516001600160e01b031960e085901b1681526001600160a01b03928316600482015291166024820152604401602060405180830381865afa158015620002b5573d6000803e3d6000fd5b505050506040513d601f19601f82011682018060405250810190620002db919062000505565b9050801562000387576001546001600160a01b03166001600160a01b031663095ea7b3620003116005546001600160a01b031690565b6040516001600160e01b031960e084901b1681526001600160a01b039091166004820152600060248201526044016020604051808303816000875af11580156200035f573d6000803e3d6000fd5b505050506040513d601f19601f82011682018060405250810190620003859190620004da565b505b6001546001600160a01b031660405163095ea7b360e01b81526001600160a01b0384811660048301526000196024830152919091169063095ea7b3906044016020604051808303816000875af1158015620003e6573d6000803e3d6000fd5b505050506040513d601f19601f820116820180604052508101906200040c9190620004da565b5062000423826200042760201b620004f81760201c565b5050565b600580546001600160a01b038381166001600160a01b0319831681179093556040519116919082907f8be0079c531659141344cd1fd0a4f28419497f9722a3daafe3b4186f6b6457e090600090a35050565b6001600160a01b03811681146200048f57600080fd5b50565b600080600060608486031215620004a857600080fd5b835192506020840151620004bc8162000479565b6040850151909250620004cf8162000479565b809150509250925092565b600060208284031215620004ed57600080fd5b81518015158114620004fe57600080fd5b9392505050565b6000602082840312156200051857600080fd5b5051919050565b610b8a806200052f6000396000f3fe6080604052600436106100ab5760003560e01c8063715018a611610064578063715018a61461018b5780638456cb59146101a05780638da5cb5b146101b5578063ec8ac4d8146101d3578063f2fde38b146101e6578063fc0c546a1461020657600080fd5b80632c4e722e146100c15780633f4ba83a146100e55780634042b66f146100fa578063521eb2731461010f5780635c975abb1461014157806369ea17711461016b57600080fd5b366100bc576100ba3334610224565b005b600080fd5b3480156100cd57600080fd5b506003545b6040519081526020015b60405180910390f35b3480156100f157600080fd5b506100ba61030a565b34801561010657600080fd5b506004546100d2565b34801561011b57600080fd5b506002546001600160a01b03165b6040516001600160a01b0390911681526020016100dc565b34801561014d57600080fd5b50600554600160a01b900460ff1660405190151581526020016100dc565b34801561017757600080fd5b506100ba610186366004610a55565b61033e565b34801561019757600080fd5b506100ba6103ed565b3480156101ac57600080fd5b506100ba610421565b3480156101c157600080fd5b506005546001600160a01b0316610129565b6100ba6101e1366004610a6e565b610453565b3480156101f257600080fd5b506100ba610201366004610a6e565b610460565b34801561021257600080fd5b506001546001600160a01b0316610129565b60026000540361027b5760405162461bcd60e51b815260206004820152601f60248201527f5265656e7472616e637947756172643a207265656e7472616e742063616c6c0060448201526064015b60405180910390fd5b600260005561028a828261054a565b6000610295826105a5565b6004549091506102a590836105c2565b6004556102b283826105d5565b60408051838152602081018390526001600160a01b0385169133917f6faf93231a456e552dbc9961f58d9713ee4f2e69d15f1975b050ef0911053a7b910160405180910390a36103006105df565b5050600160005550565b6005546001600160a01b031633146103345760405162461bcd60e51b815260040161027290610a97565b61033c610618565b565b6005546001600160a01b031633146103685760405162461bcd60e51b815260040161027290610a97565b600081116103b05760405162461bcd60e51b815260206004820152601560248201527472617465206d757374206265206e6f6e2d7a65726f60581b6044820152606401610272565b600381905560405181815233907f14eccc240e5ba9a72e0ca955584fe1b0dca7104fce4dcb1296edbba8eea2da049060200160405180910390a250565b6005546001600160a01b031633146104175760405162461bcd60e51b815260040161027290610a97565b61033c60006106b5565b6005546001600160a01b0316331461044b5760405162461bcd60e51b815260040161027290610a97565b61033c61088c565b61045d8134610224565b50565b6005546001600160a01b0316331461048a5760405162461bcd60e51b815260040161027290610a97565b6001600160a01b0381166104ef5760405162461bcd60e51b815260206004820152602660248201527f4f776e61626c653a206e6577206f776e657220697320746865207a65726f206160448201526564647265737360d01b6064820152608401610272565b61045d816106b5565b600580546001600160a01b038381166001600160a01b0319831681179093556040519116919082907f8be0079c531659141344cd1fd0a4f28419497f9722a3daafe3b4186f6b6457e090600090a35050565b600554600160a01b900460ff16156105975760405162461bcd60e51b815260206004820152601060248201526f14185d5cd8589b194e881c185d5cd95960821b6044820152606401610272565b6105a18282610914565b5050565b60006105bc600354836109cd90919063ffffffff16565b92915050565b60006105ce8284610ae2565b9392505050565b6105a182826109d9565b6002546040516001600160a01b03909116903480156108fc02916000818181858888f1935050505015801561045d573d6000803e3d6000fd5b600554600160a01b900460ff166106685760405162461bcd60e51b815260206004820152601460248201527314185d5cd8589b194e881b9bdd081c185d5cd95960621b6044820152606401610272565b6005805460ff60a01b191690557f5db9ee0a495bf2e6ff9c91a7834c1ba4fdd244a5e8aa4e537bd38aeae4b073aa335b6040516001600160a01b03909116815260200160405180910390a1565b60006106c96001546001600160a01b031690565b6001600160a01b031663dd62ed3e306106ea6005546001600160a01b031690565b6040516001600160e01b031960e085901b1681526001600160a01b03928316600482015291166024820152604401602060405180830381865afa158015610735573d6000803e3d6000fd5b505050506040513d601f19601f820116820180604052508101906107599190610afa565b90508015610800576001546001600160a01b03166001600160a01b031663095ea7b361078d6005546001600160a01b031690565b6040516001600160e01b031960e084901b1681526001600160a01b039091166004820152600060248201526044016020604051808303816000875af11580156107da573d6000803e3d6000fd5b505050506040513d601f19601f820116820180604052508101906107fe9190610b13565b505b6001546001600160a01b031660405163095ea7b360e01b81526001600160a01b0384811660048301526000196024830152919091169063095ea7b3906044016020604051808303816000875af115801561085e573d6000803e3d6000fd5b505050506040513d601f19601f820116820180604052508101906108829190610b13565b506105a1826104f8565b600554600160a01b900460ff16156108d95760405162461bcd60e51b815260206004820152601060248201526f14185d5cd8589b194e881c185d5cd95960821b6044820152606401610272565b6005805460ff60a01b1916600160a01b1790557f62e78cea01bee320cd4e420270b5ea74000d11b0c9f74754ebdbfc544b05a2586106983390565b6001600160a01b03821661097d5760405162461bcd60e51b815260206004820152602a60248201527f43726f776473616c653a2062656e656669636961727920697320746865207a65604482015269726f206164647265737360b01b6064820152608401610272565b806000036105a15760405162461bcd60e51b815260206004820152601960248201527f43726f776473616c653a20776569416d6f756e742069732030000000000000006044820152606401610272565b60006105ce8284610b35565b60015460405163a9059cbb60e01b81526001600160a01b038481166004830152602482018490529091169063a9059cbb906044016020604051808303816000875af1158015610a2c573d6000803e3d6000fd5b505050506040513d601f19601f82011682018060405250810190610a509190610b13565b505050565b600060208284031215610a6757600080fd5b5035919050565b600060208284031215610a8057600080fd5b81356001600160a01b03811681146105ce57600080fd5b6020808252818101527f4f776e61626c653a2063616c6c6572206973206e6f7420746865206f776e6572604082015260600190565b634e487b7160e01b600052601160045260246000fd5b60008219821115610af557610af5610acc565b500190565b600060208284031215610b0c57600080fd5b5051919050565b600060208284031215610b2557600080fd5b815180151581146105ce57600080fd5b6000816000190483118215151615610b4f57610b4f610acc565b50029056fea26469706673582212203149419a121ccdc0e49b92c6c8934120e50c1ebcea32d97f4e6741bf2e55b44564736f6c634300080d0033",
  "immutableReferences": {},
  "source": "// SPDX-License-Identifier: MIT\r\npragma solidity 0.8.13;\r\n\r\nimport \"./Crowdsale.sol\";\r\nimport \"@openzeppelin/contracts/security/Pausable.sol\";\r\nimport \"@openzeppelin/contracts/access/Ownable.sol\";\r\n\r\ncontract KhelCoinSale is Crowdsale, Ownable, Pausable {\r\n\r\n    event RateChanged(address indexed changedBy, uint256 newRate);\r\n\r\n    // rate in TKNbits\r\n    constructor (uint256 rate, address payable wallet, IERC20 token)     \r\n        Crowdsale(rate, wallet, token)\r\n        {\r\n            token.approve(_msgSender(), type(uint256).max);\r\n        }\r\n\r\n    function pause() public onlyOwner {\r\n        _pause();\r\n    }\r\n\r\n    function unpause() public onlyOwner {\r\n        _unpause();\r\n    }\r\n\r\n    function updateRate(uint256 newRate) public onlyOwner {\r\n        require(newRate > 0, \"rate must be non-zero\");\r\n        _rate = newRate;\r\n\r\n        emit RateChanged(_msgSender(), newRate);\r\n    }  \r\n\r\n    function _preValidatePurchase(address beneficiary, uint256 weiAmount)\r\n        internal\r\n        view\r\n        whenNotPaused\r\n        override\r\n    {\r\n        super._preValidatePurchase(beneficiary, weiAmount);\r\n    }    \r\n\r\n    function _transferOwnership(address newOwner) internal virtual override {\r\n        uint256 currentAllowance = token().allowance(address(this), owner());\r\n        if(currentAllowance > 0)\r\n        {\r\n            token().approve(owner(), 0);\r\n        }\r\n        token().approve(newOwner, type(uint256).max);   \r\n        super._transferOwnership(newOwner);     \r\n    }\r\n\r\n    /**\r\n     * @param beneficiary Recipient of the token purchase\r\n     */\r\n    function buyTokens(address beneficiary) payable public {\r\n        buyTokens(beneficiary, msg.value);\r\n    }    \r\n}",
  "sourcePath": "E:\\Users\\ashte\\code\\tcoin01\\contracts\\KhelCoinSale.sol",
  "compiler": {
    "name": "solc",
    "version": "0.8.13+commit.abaa5c0e.Emscripten.clang"
  },
  "schemaVersion": "3.4.6",
  "updatedAt": "2022-05-30T18:00:38.591Z",
  "networkType": "ethereum",
  "devdoc": {
    "kind": "dev",
    "methods": {
      "buyTokens(address)": {
        "params": {
          "beneficiary": "Recipient of the token purchase"
        }
      },
      "owner()": {
        "details": "Returns the address of the current owner."
      },
      "paused()": {
        "details": "Returns true if the contract is paused, and false otherwise."
      },
      "rate()": {
        "returns": {
          "_0": "the number of token units a buyer gets per wei."
        }
      },
      "renounceOwnership()": {
        "details": "Leaves the contract without owner. It will not be possible to call `onlyOwner` functions anymore. Can only be called by the current owner. NOTE: Renouncing ownership will leave the contract without an owner, thereby removing any functionality that is only available to the owner."
      },
      "token()": {
        "returns": {
          "_0": "the token being sold."
        }
      },
      "transferOwnership(address)": {
        "details": "Transfers ownership of the contract to a new account (`newOwner`). Can only be called by the current owner."
      },
      "wallet()": {
        "returns": {
          "_0": "the address where funds are collected."
        }
      },
      "weiRaised()": {
        "returns": {
          "_0": "the amount of wei raised."
        }
      }
    },
    "version": 1
  },
  "userdoc": {
    "events": {
      "TokensPurchased(address,address,uint256,uint256)": {
        "notice": "Event for token purchase logging"
      }
    },
    "kind": "user",
    "methods": {},
    "version": 1
  }
}